:020000040800F2
:10000000C8050020A101000879210008891F000807
:1000100075210008D10200083927000800000000FF
:100020000000000000000000000000007F21000828
:1000300015030008000000007D2100088121000850
:10004000BB010008BB010008BB010008BB010008A0
:10005000BB010008BB010008BB010008BB01000890
:10006000BB010008BB010008BB010008BB01000880
:10007000BB010008BB010008BB010008BB01000870
:10008000BB010008BB010008BB010008E502000835
:10009000D5020008BB010008BB010008BB01000835
:1000A000BB010008BB010008BB010008BB01000840
:1000B000BB010008BB010008BB010008BB01000830
:1000C000BB010008BB010008BB010008BB01000820
:1000D000BB01000829270008BB010008BB0100087C
:1000E000BB010008BB010008BB010008BB01000800
:1000F000BB010008BB010008BB010008BB010008F0
:10010000BB010008BB010008BB010008BB010008DF
:10011000BB010008BB010008BB010008BB010008CF
:10012000BB010008BB010008BB010008BB010008BF
:10013000BB010008BB010008BB0100080503000863
:10014000F5020008BB010008BB010008BB01000864
:10015000BB010008BB010008BB010008BB0100088F
:10016000BB010008BB010008BB010008BB0100087F
:10017000BB010008BB010008BB0100080000000033
:10018000BB010008BB010008DFF810D000F08EF8BA
:1001900000480047592C0008AFF30080C805002034
:1001A0000648804706480047FEE7FEE7FEE7FEE711
:1001B000FEE7FEE7FEE7FEE7FEE7FEE72122000896
:1001C000890100082DE9F05F0546002092469B4614
:1001D00088460646814640241BE02846414647465D
:1001E000224600F053F853465A46C01A914110D3A4
:1001F00011461846224600F03AF82D1A67EB01081E
:100200004F4622460120002100F031F817EB00098B
:100210004E41201EA4F10104DFDC484631462A4647
:100220004346BDE8F09F40EA01039B0703D009E085
:1002300008C9121F08C0042AFAD203E011F8013BD2
:1002400000F8013B521EF9D27047D2B201E000F82B
:10025000012B491EFBD270470022F6E710B513466A
:100260000A4604461946FFF7F0FF204610BD202A33
:1002700004DB203A00FA02F1002070479140C2F1FD
:10028000200320FA03F3194390407047202A04DB2F
:10029000203A21FA02F00021704721FA02F3D040FF
:1002A000C2F120029140084319467047064C074DA1
:1002B00006E0E06840F0010394E807009847103436
:1002C000AC42F6D3FFF764FF742E0008942E0008AA
:1002D00000BFFEE710B5024800F0A5F910BD000010
:1002E0003001002010B5024800F09DF910BD00005B
:1002F0003001002010B5024800F095F910BD000053
:100300005801002010B5024800F08DF910BD000022
:1003100058010020704772B600BFFEE710B50246D4
:1003200092F82030012B01D0022B06D110684069D1
:10033000084314686061002010BD506A40F48020BA
:1003400050620120F8E7F0B504460D461E4694F8C9
:10035000207020688368A86800B900E000BF012F02
:1003600001D0022F7DD103F0806030B903F000602E
:1003700018B903F0805000287ED0C3F3016101203A
:1003800088403060A86860B9B5F800C0E86840EA05
:100390004C5C206800F5C07000EB0110C0F800C094
:1003A0000FE0D5E901C040EACC00D5F80CC040EA26
:1003B0000C00D4F800C00CF5C07C0CEB011CCCF890
:1003C0000000D5F810C0206800F5C07000EB0110E7
:1003D000C0F804C0287D01280ED1206800F5C07047
:1003E00000EB0110406840F4807C206800F5C0708C
:1003F00000EB0110C0F804C0D079000692F806C0E6
:1004000040EA0C4092F805C040EA0C2092F804C083
:1004100040EA0C00D4F800C00CF5C07C0CEB011CC9
:10042000CCF80C00D078000692F802C040EA0C40EC
:1004300092F801C040EA0C2092F800C040EA0C009B
:10044000D4F800C00CF5C07C0CEB011CCCF8080003
:10045000206800F5C07000EB0110006840F0010C4E
:1004600001E00FE008E0206800F5C07000EB01102B
:10047000C0F800C00020F0BD606A40F40010606267
:100480000120F8E7606A40F4802060620120F2E712
:10049000704770B5044694F82050012D01D0022D0C
:1004A0007DD151B92068C06800F0030080B9606A4E
:1004B00040F400106062012070BD2068006900F007
:1004C000030028B9606A40F4001060620120F3E77D
:1004D000206800F5D87000EB0110006800F00400FF
:1004E0009060906840B9206800F5D87000EB01106A
:1004F0000068400D106007E0206800F5D87000EB40
:1005000001100068C0085060206800F5D87000EB4A
:100510000110006800F00200D060206800F5D8707B
:1005200000EB0110406800F00F00082802D30820FB
:10053000106108E0206800F5D87000EB01104068F9
:1005400000F00F001061206800F5D87000EB01107A
:10055000406800F47F40000A9061206800F5D87080
:1005600000EB01104068000C5061206800F5D87065
:1005700000EB011080681870206800F5D87000EB5F
:100580000110806800F47F40000A5870206800F570
:10059000D87000EB0110806800F47F0000E03CE0C0
:1005A000000C9870206800F5D87000EB011080688E
:1005B000000ED870206800F5D87000EB0110C068FC
:1005C0001871206800F5D87000EB0110C06800F4C5
:1005D0007F40000A5871206800F5D87000EB0110C8
:1005E000C06800F47F00000C9871206800F5D87096
:1005F00000EB0110C068000ED87131B92068C068E6
:1006000040F020002668F06005E02068006940F0B6
:1006100020002668306100204EE7606A40F48020A8
:100620006062012048E72DE9F05F0446002520685C
:1006300046692068D0F80490206887682068D0F860
:100640000CA02068D0F810B02068D0F8188006F010
:100650000100002855D007F00100C0B10120216839
:10066000886007F0020018B1204600F0C6FA0EE0DC
:1006700007F0040010B145F4006508E007F0080039
:1006800010B145F4805502E0204600F0B5FA07F4B9
:100690008070C8B14FF480702168886007F40070E2
:1006A00018B1204600F0ABFA0EE007F4806010B1FC
:1006B00045F4005508E007F4006010B145F48045AA
:1006C00002E0204600F09AFA07F48030C8B14FF4F7
:1006D00080302168886007F4003018B1204600F0AF
:1006E00090FA0EE007F4802010B145F4004508E0D0
:1006F00007F4002010B145F4803502E0204600F0F8
:100700007FFA06F0080038B10AF0100020B145F475
:10071000007510202168C86006F0040040B10AF09E
:10072000080028B108202168C860204600F0FEF9C2
:1007300006F0020038B12068C06800F0030010B174
:10074000204600F0F5F906F0400038B10BF010003B
:1007500020B145F4806510202168086106F0200072
:1007600040B10BF0080028B108202168086120463C
:1007700000F010FA06F0100038B12068006900F0AF
:10078000030010B1204600F006FA06F4003040B134
:1007900009F0100028B1102021684860204600F0C0
:1007A000FBF906F4803040B109F0080028B10820B8
:1007B00021684860204600F025FA06F4004088B31E
:1007C00009F0040078B306F4807020B108F001004D
:1007D00008B145F0010506F4007020B108F00200F0
:1007E00008B145F0020506F4806020B108F004006D
:1007F00008B145F0040506F40060A0B108F07000EF
:1008000088B108F07000402817D006DC10280BD003
:1008100020280CD0302819D10CE0502810D06028A6
:1008200014D110E01DE019E045F008050FE045F097
:1008300010050CE045F0200509E045F0400506E014
:1008400045F0800503E045F4807500E000BF00BF7F
:100850002068806920F07000216888610420216888
:1008600048602DB1606A284360622046FFF710FEA1
:10087000BDE8F09F70B504460CB9012070BD94F836
:10088000200010B9204600F0AFF82068006840F062
:1008900001002168086000F03FFB05460DE000F014
:1008A0003BFB401B0A2808D9606A40F400306062B4
:1008B000052084F820000120E0E72068406800F06F
:1008C00001000028EBD02068006820F002002168B9
:1008D000086000F021FB05460DE000F01DFB401B09
:1008E0000A2808D9606A40F400306062052084F864
:1008F00020000120C2E72068406800F002000028C4
:10090000EBD1207E012806D12068006840F08000ED
:100910002168086005E02068006820F080002168F8
:100920000860607E012806D12068006840F0400021
:100930002168086005E02068006820F04000216818
:100940000860A07E012806D12068006840F02000E1
:100950002168086005E02068006820F02000216818
:100960000860E07E012806D12068006820F01000B1
:100970002168086005E02068006840F010002168E8
:100980000860207F012806D12068006840F0080038
:100990002168086005E02068006820F008002168F0
:1009A0000860607F012806D12068006840F00400DC
:1009B0002168086005E02068006820F004002168D4
:1009C0000860D4E9020108432169084361690843CA
:1009D0006168491E08432168C861002060620120E7
:1009E00084F82000002049E710B586B004461421A1
:1009F00001A8FFF731FC4749206888423AD14648B0
:100A00000068401C444908600846006801280FD16E
:100A100000BF002000904148006840F000703F494E
:100A200008600846006800F00070009000BF00BF3A
:100A300000BF0020009039481038006840F00100E5
:100A40003649103908600846006800F0010000903F
:100A500000BF00BF4FF4C050019002200290002060
:100A60000390032004900920059001A92C4800F070
:100A700049F94DE02B492068884249D100BF002048
:100A800000902648006840F08060244908600846CD
:100A9000006800F08060009000BF00BF1E48006842
:100AA000401C1D4908600846006801280FD100BF9E
:100AB000002000901948006840F000701749086055
:100AC0000846006800F00070009000BF00BF00BF43
:100AD0000020009011481038006840F002000F49D3
:100AE000103908600846006800F00200009000BF5E
:100AF00000BF4FF44050019002200290002003906C
:100B0000032004900920059001A9074800F0FAF895
:100B100006B010BD006400400800002040380240CC
:100B200000000240006800400004024070470000DE
:100B300030B589B005466B4602AA00212846FFF76A
:100B4000A8FCF0B910481149097800EB011402988B
:100B500020606946201D069AFFF765FB0698207302
:100B60000120607309490978481CC11700EB117115
:100B70000911A0EB0111054A117001200449087008
:100B800000BF09B030BD000030000020050000208B
:100B90000700002070477047704770B5044694F80E
:100BA0002000012822D1022084F82000206800685B
:100BB00020F001002168086000F0AEF905460DE064
:100BC00000F0AAF9401B0A2808D9606A40F40030F6
:100BD0006062052084F82000012070BD2068406814
:100BE00000F001000028EBD16062F6E7606A40F493
:100BF000002060620120F0E770477047704770473F
:100C000070477047704770B50446A56D00F084F9D1
:100C1000064694F83500022808D08020606500BFA1
:100C2000002084F8340000BF012070BD20680068F7
:100C300020F01600216808602068406920F08000DC
:100C400021684861206C08B9A06C28B12068006850
:100C500020F00800216808602068006820F001008A
:100C60002168086010E000F057F9801B05280BD9B7
:100C700020206065032084F8350000BF002084F840
:100C8000340000BF0320D0E72068006800F00100B6
:100C90000028E8D194F85C103F208840A86001202B
:100CA00084F8350000BF002084F8340000BF00BF86
:100CB000BBE7014691F83500022803D08020486543
:100CC00001207047052081F835000868006820F091
:100CD00001000A6810600020F3E7000070B50446C8
:100CE00000F01AF906462546681C10B10448007841
:100CF000054400BF00F010F9801BA842FAD370BD74
:100D000014000020F8B502460B4600250024002000
:100D10000021D6E0012606FA01F51E6806EA050460
:100D2000AC4274D11E7906F00306012E04D01E7960
:100D300006F00306022E13D190684F000326BE4032
:100D4000B0434F00DE68BE403043906050680126DB
:100D50008E40B0431E79C6F300168E40304350607B
:100D60001E7906F00306032E09D0D0684F00032633
:100D7000BE40B0434F009E68BE403043D0601E79F5
:100D800006F00306022E13D1CF0802F1200656F812
:100D900027004E07F70E0F26BE40B0434F07FF0E49
:100DA0001E69BE403043CF0802F1200646F82700F6
:100DB00010684F000326BE40B0431E7906F00306BC
:100DC0004F00BE40304310605E6806F44036002E8F
:100DD00076D000BF002600963C4E366846F480462A
:100DE0003A4F3E603E46366806F48046009600BFA5
:100DF00000BF374E8F0856F827008E07370F0F2693
:100E0000BE40B043334EB24202D1002624E057E048
:100E1000314EB24201D101261EE0304EB24201D124
:100E2000022619E02E4EB24201D1032614E02D4EC7
:100E3000B24201D104260FE02B4EB24201D1052669
:100E40000AE02A4EB24201D1062605E0284EB242FF
:100E500001D1072600E008268F073F0FBE40304330
:100E60001B4E8F0846F82700224E3068A0435E686C
:100E700006F4801606B120431E4E3060361D3068E1
:100E8000A0435E6806F4001606B12043194E361DD5
:100E90003060184E361F3068A0435E6806F4003696
:100EA00006B12043134E361F3060361F3068A04312
:100EB0005E6806F4803606B120430E4E083E306070
:100EC000491C1029FFF426AFF8BD00004438024049
:100ED00008380140000002400004024000080240BF
:100EE000000C0240001002400014024000180240B2
:100EF000001C0240083C014010B5426921EA02038F
:100F000002EA010443EA0443836110BD0AB181612E
:100F100001E00B04836170470148006870470000DE
:100F20000C0000200348006803490978084401497F
:100F3000086070470C0000201400002010B50D4818
:100F4000006840F400700B4908600846006840F4EF
:100F5000806008600846006840F4807008600320E4
:100F600000F0A6F80F2000F007F800F02BF80020A2
:100F700010BD0000003C024070B504460E480078E9
:100F80004FF47A71B1FBF0F00C490968B1FBF0F550
:100F9000284600F02FFC08B1012070BD102C07D2AC
:100FA00000222146501E00F045F80548046001E08B
:100FB0000120F2E70020F0E71400002018000020D4
:100FC0001000002008B500BF002000900E48006807
:100FD00040F480400C4908600846006800F48040F6
:100FE000009000BF00BF00BF00200090081F0068F5
:100FF00040F08050091F08600846006800F08050EB
:10100000009000BF00BF08BD4438024001460846BA
:1010100000280DDB00BF00BF00F01F0301229A4033
:1010200043099B0003F1E023C3F8002100BF00BF88
:1010300000BF70472DE9F05F80460D461646002739
:1010400001F08CFB074639462A46334601F007007B
:10105000C0F1070ABAF1040F02D94FF0040A01E007
:10106000C0F1070AD14600F1040ABAF1070F02D213
:101070004FF0000A01E0A0F1030AD4464FF0010A44
:101080000AFA09FAAAF1010A0AEA020A0AFA0CFAA9
:101090004FF0010B0BFA0CFBABF1010B0BEA030B4E
:1010A0004AEA0B042146404601F060FBBDE8F09F90
:1010B00000BF00F00702064B19684FF6FF03194006
:1010C000044B0B4343EA0221014B196000BF7047F8
:1010D0000CED00E00000FA0570B504460D460CB9B1
:1010E000012070BD5848006800F00700A84209D2EE
:1010F00055490D700846006800F00700A84201D06D
:101100000120EEE7207800F0020002281DD12078AF
:1011100000F00400042805D14C48006840F4E05079
:101120004A490860207800F00800082805D147489F
:10113000006840F46040454908604448006820F079
:10114000F000A168084341490860207800F00100E0
:10115000A8B36068012807D13C4808380068C0F38C
:101160004040B8B90120BCE76068022802D060683E
:10117000032807D1354808380068C0F3406048B9F3
:101180000120AEE7314808380068C0F3400008B9D4
:101190000120A6E72D48006820F00300616808439D
:1011A0002A490860FFF7B8FE064609E0FFF7B4FEDB
:1011B000801B41F28831884202D9032091E707E081
:1011C0002248006800F00C006168B0EB810FEDD19F
:1011D0001D48006800F00700A84209D91A490D709F
:1011E0000846006800F00700A84201D0012078E717
:1011F000207800F00400042807D11448006820F487
:10120000E050E168084311490860207800F00800C8
:10121000082808D10D48006820F46040216940EAA0
:10122000C1000A49086000F03FF808490968C1F3A5
:101230000311074A515CC840064908600648006827
:10124000FFF79AFE00204CE7003C024008380240BD
:101250005C2E0008180000201000002001480068E3
:10126000704700001800002000B5FFF7F7FF0449A1
:101270000968C1F38221034A515CC84000BD0000E7
:10128000083802406C2E000800B5FFF7E7FF04495C
:101290000968C1F34231034A515CC84000BD0000F7
:1012A000083802406C2E00082DE9F0470024002584
:1012B0000026A1462548006800F00C0020B1042853
:1012C00005D008283AD105E0DFF8849039E0DFF84E
:1012D000849036E01D48001F006800F03F041B4862
:1012E000001F006800F4800078B11A481749091FF0
:1012F0000968C1F38811A0FB017001462246002352
:101300003846FEF75FFF05460EE011480F49091FFA
:101310000968C1F38811A0FB017001462246002331
:101320003846FEF74FFF05460848001F0068C0F327
:101330000140401C4600B5FBF6F902E0DFF81090D2
:1013400000BF00BF4846BDE8F087000008380240F3
:101350000024F40040787D01F8B504460CB9012062
:10136000F8BD207800F00100002874D0F94800682A
:1013700000F00C0004280DD0F648006800F00C00C6
:10138000082813D1F348001F006800F48000B0F56E
:10139000800F0BD1EF4808380068C0F340400028A8
:1013A00059D06068002856D10120D9E700BF606895
:1013B000B0F5803F08D1E7480838006840F4803035
:1013C000E449083908601EE06068B0F5A02F0DD12F
:1013D000E0480838006840F48020DE490839086099
:1013E0000846006840F4803008600CE0D9480838AE
:1013F000006820F48030D749083908600846006842
:1014000020F48020086000BF606890B1FFF784FD81
:10141000054606E0FFF780FD401B642801D9032044
:101420009EE7CC4808380068C0F340400028F1D05F
:1014300011E0FFF771FD054606E0FFF76DFD401B6B
:10144000642801D903208BE7C24808380068C0F33C
:1014500040400028F1D1207800F0020002285FD13E
:10146000BC48006800F00C0058B1BA48006800F0B1
:101470000C0008281CD1B748001F006800F4800049
:10148000B0B9B44808380068C0F3400020B1E06843
:10149000012801D0012063E7AE480838006820F039
:1014A000F800216940EAC100AA490839086037E01C
:1014B000E06800B30120A8490860FFF72DFD05464C
:1014C00006E0FFF729FD401B022801D9032047E76A
:1014D000A04808380068C0F340000028F1D09D48BB
:1014E0000838006820F0F800216940EAC1009949F5
:1014F0000839086014E0002097490860FFF70CFDE8
:10150000054606E0FFF708FD401B022801D903202D
:1015100026E7904808380068C0F340000028F1D161
:10152000207800F0080008282CD16069A8B10120BB
:101530008A490860FFF7F0FC054606E0FFF7ECFC7F
:10154000401B022801D903200AE782486C3000685A
:10155000C0F340000028F1D014E000207F4908606B
:10156000FFF7DAFC054606E0FFF7D6FC401B022831
:1015700001D90320F4E677486C300068C0F34000DE
:101580000028F1D1207800F00400042870D1002751
:1015900070483830006800F0805090B900BF0020DB
:1015A00000906C483830006840F08050694938310C
:1015B00008600846006800F08050009000BF00BF3F
:1015C00001276748006800F48070B0B9644800687B
:1015D00040F4807062490860FFF79EFC054606E013
:1015E000FFF79AFC401B022801D90320B8E65C48AB
:1015F000006800F480700028F2D000BFA0680128C5
:1016000008D154486830006840F001005149683101
:1016100008601DE0A06805280DD14E4868300068BC
:1016200040F004004B49683108600846006840F00B
:10163000010008600CE047486830006820F00100B5
:101640004449683108600846006820F004000860DA
:1016500000BFA068A8B1FFF75FFC054609E0FFF7EF
:101660005BFC401B41F28831884202D9032077E6B7
:1016700026E0384868300068C0F340000028EED00B
:1016800013E0FFF749FC054608E0FFF745FC401B67
:1016900041F28831884201D9032061E62D48683043
:1016A0000068C0F340000028EFD1012F07D129487E
:1016B0003830006820F0805026493831086000BF7B
:1016C000A069002845D02348006800F00C000828D5
:1016D0005DD0A069022845D100201F490866FFF7A8
:1016E0001BFC054606E0FFF717FC401B022801D94A
:1016F000032035E6174808380068C0F3406000282A
:10170000F1D1D4E907010843616A40EA811101225D
:10171000A06AC2EB500041EA00412C20005D41EA82
:1017200000600C49091F086001200B490866FFF79B
:10173000F3FB054606E0FFF7EFFB401B022801D94B
:1017400003200DE6034808380068C0F34060002815
:10175000F1D049E00838024000004742800E47427D
:1017600000700040002021490866FFF7D5FB0546C0
:1017700006E0FFF7D1FB401B022801D90320EFE56B
:101780001B480068C0F340600028F2D12CE0A0693B
:10179000012800D1E4E51648001D0668A06901286B
:1017A00020D006F48001E06981421BD106F03F01A0
:1017B000206A814216D147F6C0703040616AB0EBB2
:1017C000811F0FD106F440310122A06AC2EB500004
:1017D000B1EB004F06D106F070612C20005DB1EB3B
:1017E000006F01D00120BBE50020B9E500004742B1
:1017F0000038024070B504462546681EB0F1807F6F
:1018000001D301200FE0681E4FF0E02148610F2155
:101810004FF0FF3000F0AAFF00204FF0E021886178
:1018200007200861002070BD704770472DE9F84F10
:101830000446206805682068C668206847694FF03C
:101840000009CA4605F00F09B9F1000F0AD105F0E9
:10185000200038B106F0200020B1204600F039FD0C
:10186000BDE8F88FB9F1000F7CD007F0010018B97E
:1018700006F49070002875D005F0010030B106F430
:10188000807018B1606C40F00100606405F00400E5
:1018900030B107F0010018B1606C40F002006064E4
:1018A00005F0020030B107F0010018B1606C40F0A3
:1018B0000400606405F0080048B106F0200010B98B
:1018C00007F0010018B1606C40F008006064606CC3
:1018D000002846D005F0200028B106F0200010B105
:1018E000204600F0F6FC20684069C0F3801A606C66
:1018F00000F0080010B9BAF1000F2DD0204600F01A
:10190000A2FC2068406900F04000402820D100BFC0
:1019100000BF2168143151E8001F21F04000216808
:10192000143141E80002002AF3D100BFE06B50B14E
:101930007F48E16B0865E06BFFF7BBF988B1E06BAE
:10194000016D88470DE02046FFF76FFF09E009E0D1
:101950002046FFF76AFF04E02046FFF766FF0020FD
:1019600060647DE7206B012878D105F01000002825
:1019700074D006F010000028FAD000BF00200090BC
:1019800020680068009020684068009000BF00BF99
:101990002068406900F04000402870D1E06B00688A
:1019A00040681FFA80F8B8F1000F58D0A08D40456C
:1019B00055DDA4F82E80E06BC069B0F5807F43D080
:1019C00000BF00BF21680C3151E8001F21F4807076
:1019D00021680C3141E80002002AF3D100BF00BFAA
:1019E00000BF2168143151E8001F21F00100216877
:1019F000143141E80002002AF3D100BF00BF00BF4C
:101A00002168143151E8001F21F040002168143191
:101A100041E80002002AF3D100BF202084F84200F0
:101A20000020206300BF00BF21680C3151E8001F77
:101A300021F0100021680C3141E80002002AF3D1A6
:101A400000BFE06BFFF7DFF802206063A08DE28D3E
:101A5000801A81B22046FFF7E7FE0EE052E0A08D2B
:101A600040450AD1E06BC069B0F5807F05D1022006
:101A70006063A18D2046FFF7D7FEF1E6FFE7A08D5A
:101A8000E18D401A1FFA80F8E08DD0B3B8F1000F55
:101A900037D000BF00BF21680C3151E8001F21F48E
:101AA000907021680C3141E80002002AF3D100BF98
:101AB00000BF00BF2168143151E8001F21F0010070
:101AC0002168143141E80002002AF3D100BF202030
:101AD00084F842000020206300BF00BF21680C3161
:101AE00051E8001F21F0100021680C3141E800028C
:101AF000002AF3D100BF0220606341462046FFF771
:101B000093FEADE605F0800030B106F0800018B11C
:101B1000204600F093FDA3E605F0400030B106F04A
:101B2000400018B1204600F0C4FB99E600BF97E6DC
:101B30003522000810B504460CB9012010BDA0697B
:101B400000B100E000BF94F8410028B9002084F8FB
:101B50004000204600F02AF8242084F84100206844
:101B6000C06820F400502168C860204600F030FCB6
:101B70002068006920F4904021680861206840696D
:101B800020F02A00216848612068C06840F40050B5
:101B90002168C86000206064202084F8410084F837
:101BA00042000020606300BFC8E7000010B586B0A7
:101BB0000446142101A8FEF74FFB1F492068884204
:101BC00038D100BF002000901C48006840F0100091
:101BD0001A4908600846006800F01000009000BF35
:101BE00000BF00BF0020009014481438006840F087
:101BF00001001249143908600846006800F001002D
:101C0000009000BF00BF4FF4C0600190022002901E
:101C100000200390032004900720059001A90848A4
:101C2000FFF770F8002211462520FFF703FA252060
:101C3000FFF7ECF906B010BD001001404438024037
:101C40000000024070B504460D46164694F8420066
:101C500020280BD105B10EB9012070BD00202063F2
:101C600032462946204600F0C9FCF6E70220F4E798
:101C70002DE9F14F86B0069800687F4988426FD100
:101C80007E4800780F2808DA7D490A787B49087871
:101C9000411C7A4B19707B490A54794800780A280C
:101CA00003D0774800780D2878D14FF0000801E084
:101CB00008F1010871480078804509DA714810F888
:101CC00008002028F4D06F4810F808000928EFD049
:101CD0006A480078451E00E06D1E45450FDB6948E7
:101CE000405D2028F8D06748405D0928F4D0654859
:101CF000405D0D28F0D06348405D0A28ECD0454592
:101D000073DB00215F4A681C115400270026002065
:101D100005900490104600EB080420782D2802D18D
:101D200001200590641C06E02078303807EB87011D
:101D300000EB4107641C2078302802DB207839282A
:101D4000F2DD059800B17F4200E0641C2078202875
:101D5000FBD020782D2802D101200490641C07E0DC
:101D600086E02078303806EB860100EB4106641CE3
:101D70002078302802DB20783928F2DD049800B181
:101D8000764202208DF808003812000E8DF80A0005
:101D90008DF80900391E02DB0A4601E063E04A4281
:101DA00002EB8202501C00EBD07252100FFA82F943
:101DB000002F03DAC9F100000FFA80F94FEA192069
:101DC0008DF80B0009F0FF008DF80C00052202A928
:101DD000012000F01BFF3012000E8DF80A008DF874
:101DE0000900301E02DB014601E038E0414201EB10
:101DF00081010FFA81FA002E03DACAF100000FFA0E
:101E000080FA4FEA1A208DF80B000AF0FF008DF8D7
:101E10000C00052202A9002000F0F8FE0197B6F19F
:101E2000000B01DB584601E0CBF100000090002ED2
:101E300001DA15A000E015A003460198002801DB97
:101E4000019801E0019840420246002F01DA0EA0FD
:101E500000E00EA001460EA000F070FC00BF0020C4
:101E60000649087000BF012205491648FFF7EAFE3F
:101E700007B0BDE8F08F0000001001400300002013
:101E800000000020200000202D0000002B0000009A
:101E900055415254202D3E2043414E204D4F544F2A
:101EA00052313A20257325642072706D2C204D4FDD
:101EB000544F52323A20257325642072706D0D0AFA
:101EC00000000000800100202DE9F84F04460E4676
:101ED000174699464FF0000A94F84100202850D147
:101EE00006B117B90120BDE8F88F002060642120F9
:101EF00084F84100FFF710F88246A784E784A068C1
:101F0000B0F5805F04D1206910B90025B04602E029
:101F100035464FF000081EE053460022802120463F
:101F2000CDF8009000F0BAFB20B1202084F84100E9
:101F30000320D8E745B9B8F80000C0F308002168CD
:101F4000486008F1020803E02878216848606D1CA9
:101F5000E08C401EE084E08C0028DDD15346002256
:101F600040212046CDF8009000F098FB20B12020C1
:101F700084F841000320B6E7202084F841000020C7
:101F8000B1E70220AFE7704700BFFEE710B50F488A
:101F90000F4908600420486000210D488160C1603D
:101FA0004FF4003101614FF440114161002101768D
:101FB000417681760121C176002101774177FEF7D4
:101FC00059FC08B1FEF7A7F910BD000000640040FD
:101FD0003001002010B50F480F4908600420486008
:101FE00000210D488160C1604FF4003101614FF460
:101FF0004011416100210176417681760121C1764F
:10200000002101774177FEF735FC08B1FEF783F92F
:1020100010BD0000006800405801002000B587B0E6
:10202000142102A8FEF718F900BF002001902F48E4
:10203000006840F010002D4908600846006800F074
:102040001000019000BF00BF00BF002001900846B3
:10205000006840F0040008600846006800F00400D2
:10206000019000BF00BF00BF00200190084600683B
:1020700040F0020008600846006800F0020001908D
:1020800000BF00BF00BF002001900846006840F07C
:10209000010008600846006800F00100019000BFE0
:1020A00000BF002270211248FEF730FF00224FF4DB
:1020B00000511048FEF72AFF702002900120039083
:1020C00000200490059002A90948FEF71BFE4FF47A
:1020D000005002900120039000200490059002A976
:1020E0000448FEF70FFE07B000BD00003038024084
:1020F000001002400008024010B5002211461420D2
:10210000FEF798FF1420FEF781FF002211461320EE
:10211000FEF790FF1320FEF779FF002211463F20C3
:10212000FEF788FF3F20FEF771FF00221146402096
:10213000FEF780FF4020FEF769FF10BD10B50B4889
:102140000B4908604FF4E130486000210848816085
:10215000C16001610C21416100218161C161FFF712
:10216000E9FC08B1FEF7D7F810BD000000100140EF
:102170008001002000BFFEE700BFFEE77047704708
:1021800010B5FEF7CFFE10BD00B593B0302107A803
:10219000FEF762F8142102A8FEF75EF800BF0020E7
:1021A00001901D48006840F080501B4908600846B7
:1021B000006800F08050019000BF00BF00BF002009
:1021C00001901648006840F48040144908600846B1
:1021D000006800F48040019000BF00BF022007901B
:1021E00001200A9010200B9000200D9007A8FFF707
:1021F000B3F808B1FEF78FF80F200290002003908B
:10220000049005900690002102A8FEF765FF08B132
:10221000FEF781F813B000BD403802400070004066
:102220000348006840F470000149086070470000EE
:1022300088ED00E070B50446A56B0020E8852846CF
:10224000FFF7F3FA70BD00BF00BF02680C3252E81E
:10225000002F22F4907102680C3242E80013002B28
:10226000F3D100BF00BF00BF0268143252E8002F54
:1022700022F001010268143242E80013002BF3D16E
:1022800000BF016B01290ED100BF00BF02680C32F4
:1022900052E8002F22F0100102680C3242E80013CD
:1022A000002BF3D100BF202180F8421000210163F0
:1022B000704710B504462068C06820F040002168CF
:1022C000C860202084F841002046FFF75CFE002013
:1022D00010BDF8B504460025002694F842002228D7
:1022E00073D1A068B0F5805F0BD1206948B9A66AA8
:1022F00020684068C0F308003080A06A801CA0629B
:1023000014E0A56AA068B0F5805F03D0A06828B982
:10231000206918B920684068287004E02068406887
:1023200000F07F002870A06A401CA062E08D401E73
:1023300080B2E085002846D12068C06820F02000E7
:102340002168C8602068C06820F480702168C86077
:102350002068406920F0010021684861202084F84D
:10236000420000206063206B012826D100202063FA
:1023700000BF00BF21680C3151E8001F21F01000A0
:1023800021680C3141E80002002AF3D100BF206827
:10239000006800F0100010280AD100BF0020009053
:1023A00020680068009020684068009000BF00BF6F
:1023B000A18D2046FFF738FA02E02046FFF758FCCF
:1023C0000020F8BD01E00020FBE70220F9E7000053
:1023D0002DE9F84F04462068006920F44050E16878
:1023E0000843216808612169A068084361690843BE
:1023F000E169084300902068C06849F20C61884395
:10240000009908432168C8602068406920F4407042
:10241000A16908432168486176492068884203D051
:1024200075492068884203D1FEF72EFF814602E0FD
:10243000FEF71AFF8146E069B0F5004F6CD102202B
:102440006168A0FB015003461920A9FB00700146FA
:102450002A463846FDF7B6FE6421B0FBF1F04FEA9C
:10246000001A02206168A0FB01510B461920A9FB4C
:1024700000712A463846FDF7A5FE834602206168B2
:10248000A0FB015003461920A9FB00712A463846DB
:10249000FDF798FE6421B0FBF1F000EBC00101EB09
:1024A0000010ABEB8000322101EBC0006421B0FBD7
:1024B000F1F000F0F8000AEB400A02206168A0FB8E
:1024C000015003461920A9FB007001462A463846F0
:1024D000FDF778FE834602206168A0FB01500346A9
:1024E0001920A9FB00712A463846FDF76BFE6421CE
:1024F000B0FBF1F000EBC00101EB0010ABEB800092
:10250000322101EBC0006421B0FBF1F000F00700C4
:102510005044216888606AE004206168A0FB015093
:1025200003461920A9FB007001462A463846FDF7EC
:1025300049FE824604206168A0FB01500346192031
:10254000A9FB007001462A463846FDF73BFE642190
:10255000B0FBF1F000EBC00101EB0010AAEB800032
:10256000322101EB00106421B0FBF1F000F0F00A21
:1025700004206168A0FB017003461920A9FB0051EB
:102580003A462846FDF71EFE6421B0FBF1F00AEB47
:10259000001A04206168A0FB01510B461920A9FB19
:1025A00000712A463846FDF70DFE83460420616817
:1025B000A0FB015003461920A9FB007001462A46E2
:1025C0003846FDF7FFFD6421B0FBF1F000EBC001E0
:1025D00001EB0010ABEB8000322101EB0010642115
:1025E000B0FBF1F000F00F00504421688860BDE8B6
:1025F000F88F0000001001400014014010B50346A0
:1026000099629A85DA8500205864222083F8420076
:10261000186928B11868C06840F480701C68E060D0
:102620001868406940F001001C6860611868C06863
:1026300040F020001C68E060002010BD014691F8C9
:102640004100212828D18868B0F5805F0BD1086946
:1026500048B90A6A1088C0F308000B685860086A15
:10266000801C086205E00B6A581C086218780B6829
:102670005860C88C401E80B2C88458B90868C068C9
:1026800020F080000B68D8600868C06840F0400007
:102690000B68D860002070470220FCE72DE9F84362
:1026A00004460D4617469846089E31E0701C70B3EC
:1026B000FEF732FCA0EB0800B04200D816B90320A8
:1026C000BDE8F8832068C06800F00400F8B1802DF0
:1026D0001ED0402D1CD020680068C0F3C000B0B1EF
:1026E00000BF0020009020680068009020684068CB
:1026F000009000BF00BF2046FFF7A5FD08206064E2
:1027000000BF002084F8400000BF0120D8E7FFE7A9
:10271000206800682840A84201D1012000E0002084
:10272000B842C3D00020CBE710B50248FFF77EF8CF
:1027300010BD00008001002000BFFEE70FB4054B74
:1027400010B503A9044A029800F034F810BC5DF8F3
:1027500014FB00003D2C00081C000020024800680B
:10276000C0F30220704700000CED00E010B5002817
:1027700004DB0A07130E054A135406E00A07140E79
:10278000034A00F00F031B1FD45410BD00E400E007
:1027900018ED00E002E008C8121F08C1002AFAD1B3
:1027A00070477047002001E001C1121F002AFBD1D1
:1027B000704700002DE9FF4F8DB00F4605460026FB
:1027C00006E025280BD0DDE90F1290476D1C761C22
:1027D00028780028F5D111B03046BDE8F08F0024EC
:1027E000A246A1460122E94900E0044315F8013F51
:1027F000203B02FA03F00842F7D128782A2810D0AB
:102800006FF02F022878A0F13001092914D80AEBC3
:102810008A0102EB410144F0020400EB010A6D1C45
:10282000F0E701CF5FEA000A03D544F40054CAF18F
:10283000000A44F002046D1C28782E2817D115F8E0
:10284000010F44F004042A280ED06FF02F022878DC
:10285000A0F1300109290AD809EB890102EB4101F5
:1028600000EB01096D1CF2E757F8049B6D1C2878FA
:102870006C280FD006DC4C2817D068280DD06A28A9
:1028800014D104E0742810D07A280FD10DE044F45C
:1028900000140AE044F4801401E044F44014697820
:1028A000814202D104F580146D1C6D1C28786E28BD
:1028B0001ED00CDC632830D004DC00288BD05828D4
:1028C00011D19FE0642867D069280CD164E0732897
:1028D0002DD004DC6F2872D0702804D194E07528C4
:1028E0006ED078286DD0DDE90F129047761C4BE151
:1028F000C4F30250022806D0032809D0042801CFCF
:1029000009D0066040E101CFF117C0E900613BE169
:1029100001CF068038E1067036E117F8040B8DF818
:10292000000000208DF80100EB46012003E057F87D
:1029300004BB4FF0FF3061074FF0000102D40DE0FF
:1029400008F10101884649450FDA8045F8DB1BF89C
:1029500008100029F4D108E008F1010188468142FD
:10296000FADB1BF808100029F6D1DDE90F23AAEBEA
:1029700008008146214600F031F9304400EB08069A
:1029800004E0DDE90F121BF8010B9047B8F10108D4
:10299000F7D221464846F2E00A21C4F302524FF032
:1029A000000B0891022A04D001CFC117032A09D0D5
:1029B0000AE0FF1D27F00707F7E8020108E02CE016
:1029C0001EE01FE000B2C117042A01D140B2C117B6
:1029D000021E71F1000206DA0023D0EB030063EB64
:1029E00001012D2202E0220504D52B228DF824209E
:1029F000012203E0E20701D02022F7E7904653E0EE
:102A00000A210BE0102109E010214FF0000B44F0E7
:102A100004044FF00809089103E008214FF0000B6F
:102A20000891C4F30252022A04D001CF0021032AE4
:102A300006D006E0FF1D27F00707F7E8020103E0D4
:102A400080B2042A00D1C0B24FF0000822072BD573
:102A50002A78702A07D0DDF820C08CF0100C5CEAD0
:102A60000B0C05D00EE040228DF82420012208E056
:102A700050EA010306D030238DF824308DF825204C
:102A800002229046089B83F0080353EA0B030BD104
:102A900050EA010201D1620706D530228DF82420C8
:102AA0004FF00108A9F101092A78582A04D038A268
:102AB0000B9208AA0A920BE03AA2F9E75B46089A41
:102AC000FDF780FB0B9B9B5C0A9A521E0A921370C7
:102AD00050EA0102F2D10A98ADEB000000F1200BA0
:102AE000600702D524F4803401E04FF00109D94594
:102AF00002DDA9EB0B0000E0002000EB0B014144DC
:102B00000890AAEB010AE00306D4DDE90F23214671
:102B1000504600F063F806444FF0000908E009A9A8
:102B200011F80900DDE90F12904709F10109761C3F
:102B3000C145F4DBE0030CD5DDE90F232146504607
:102B400000F04CF8064404E0DDE90F123020904715
:102B5000761C0899481E08900029F5DC08E00A98C0
:102B60000A990078491C0A91DDE90F129047761CFA
:102B7000BBF10001ABF1010BF1DC21465046DDE970
:102B80000F2300F019F806446D1C21E60928010006
:102B900030313233343536373839616263646566D3
:102BA0000000000030313233343536373839414295
:102BB00043444546000000002DE9F041044600254D
:102BC0001E461746880404D405E039462020B04745
:102BD0006D1C641EF9D52846BDE8F0812DE9F04151
:102BE000044600251E469046C80301D5302700E064
:102BF0002027880404D505E041463846B0476D1CBF
:102C0000641EF9D52846BDE8F081000070B588B093
:102C100004460D4616460294002003900590049049
:102C200006968DF81C0001AB2A4602A90248FDF762
:102C30008AFB08B070BD00003001002013B50C46BF
:102C40004FF0FF33012269460248FFF73DF9009833
:102C50001CBD00008001002008B50026FEF76EF9BB
:102C6000FFF792FAFFF7DAF9FFF790F9FFF7B2F9F9
:102C7000FFF764FAFFF740FA2A48FDF78EFF0221BA
:102C80002848FDF74BFB012227492848FEF7DAFFC9
:102C900046E0FEF741F90546A81BB0F5FA7F1ED3C2
:102CA00000200090012269461046FFF7AFFF012285
:102CB00069460020FFF7AAFF2E4610211C48FEF7A8
:102CC0001BF920211A48FEF717F940211848FEF792
:102CD00013F94FF400511748FEF70EF900BF1648DC
:102CE0000078C8B1002412E0144800EB0410407BC7
:102CF00060B1124901EB041000F02CF810A0FFF7AE
:102D00001DFD00200D4901EB04114873641C102CBB
:102D1000EADB0020084908700A20FDF7DFFF00BF4A
:102D2000B7E70000300100200000002080010020F3
:102D30000010024000080240070000203000002080
:102D40003434343434343434343434343434343443
:102D50000D0A00002DE9F84304462068012802D03E
:102D60002068002836D1207B062833DBA079FF2895
:102D700004D1E079FF2801D1012000E000200746BE
:102D8000617A207A41EA00251FB1E843401C00B275
:102D900000E028B280462068012806D14FEA4800AA
:102DA000052190FBF1F086B203E0052098FBF0F0DE
:102DB00086B200960FB111A000E011A00346226870
:102DC000012A01D10FA000E00FA001460FA0FFF7DC
:102DD000B5FC11E02068012801D0206860B9207B93
:102DE000062809DA2268012A01D106A000E006A01F
:102DF000014610A0FFF7A2FCBDE8F8832D000000FB
:102E00002B00000031000000320000004D6F746F95
:102E1000722025732049443D30782530336C58208A
:102E200053706565643A20257325752072706D0DA9
:102E30000A0000004D6F746F722025732049443DD5
:102E400030782530336C582044617461206C656E95
:102E5000677468206572726F720D0A0000000000CE
:102E6000000000000102030406070809000000003A
:102E700001020304942E000800000020200000003E
:102E800094270008B42E000820000020A8050000A8
:102E9000A42700080000000000000000000000005F
:102EA0000000000010000000010000000024F400F9
:042EB000000000001E
:040000050800018965
:00000001FF
